{
  "_format": "hh-sol-artifact-1",
  "contractName": "FarmMachinery",
  "sourceName": "contracts/FarmMachinery.sol",
  "abi": [
    {
      "anonymous": false,
      "inputs": [
        {
          "indexed": false,
          "internalType": "uint256",
          "name": "id",
          "type": "uint256"
        },
        {
          "indexed": false,
          "internalType": "string",
          "name": "name",
          "type": "string"
        },
        {
          "indexed": false,
          "internalType": "uint256",
          "name": "rentPrice",
          "type": "uint256"
        },
        {
          "indexed": false,
          "internalType": "uint256",
          "name": "sharePrice",
          "type": "uint256"
        },
        {
          "indexed": false,
          "internalType": "address",
          "name": "owner",
          "type": "address"
        }
      ],
      "name": "MachineryListed",
      "type": "event"
    },
    {
      "anonymous": false,
      "inputs": [
        {
          "indexed": false,
          "internalType": "uint256",
          "name": "id",
          "type": "uint256"
        },
        {
          "indexed": false,
          "internalType": "address",
          "name": "renter",
          "type": "address"
        },
        {
          "indexed": false,
          "internalType": "uint256",
          "name": "amount",
          "type": "uint256"
        }
      ],
      "name": "MachineryRented",
      "type": "event"
    },
    {
      "anonymous": false,
      "inputs": [
        {
          "indexed": false,
          "internalType": "uint256",
          "name": "id",
          "type": "uint256"
        },
        {
          "indexed": false,
          "internalType": "address",
          "name": "buyer",
          "type": "address"
        },
        {
          "indexed": false,
          "internalType": "uint256",
          "name": "amount",
          "type": "uint256"
        }
      ],
      "name": "MachineryShared",
      "type": "event"
    },
    {
      "inputs": [],
      "name": "getMachineries",
      "outputs": [
        {
          "components": [
            {
              "internalType": "uint256",
              "name": "id",
              "type": "uint256"
            },
            {
              "internalType": "string",
              "name": "name",
              "type": "string"
            },
            {
              "internalType": "uint256",
              "name": "rentPrice",
              "type": "uint256"
            },
            {
              "internalType": "uint256",
              "name": "sharePrice",
              "type": "uint256"
            },
            {
              "internalType": "address",
              "name": "owner",
              "type": "address"
            }
          ],
          "internalType": "struct FarmMachinery.Machinery[]",
          "name": "",
          "type": "tuple[]"
        }
      ],
      "stateMutability": "view",
      "type": "function"
    },
    {
      "inputs": [
        {
          "internalType": "string",
          "name": "_name",
          "type": "string"
        },
        {
          "internalType": "uint256",
          "name": "_rentPrice",
          "type": "uint256"
        },
        {
          "internalType": "uint256",
          "name": "_sharePrice",
          "type": "uint256"
        }
      ],
      "name": "listMachinery",
      "outputs": [],
      "stateMutability": "nonpayable",
      "type": "function"
    },
    {
      "inputs": [
        {
          "internalType": "uint256",
          "name": "",
          "type": "uint256"
        }
      ],
      "name": "machineries",
      "outputs": [
        {
          "internalType": "uint256",
          "name": "id",
          "type": "uint256"
        },
        {
          "internalType": "string",
          "name": "name",
          "type": "string"
        },
        {
          "internalType": "uint256",
          "name": "rentPrice",
          "type": "uint256"
        },
        {
          "internalType": "uint256",
          "name": "sharePrice",
          "type": "uint256"
        },
        {
          "internalType": "address",
          "name": "owner",
          "type": "address"
        }
      ],
      "stateMutability": "view",
      "type": "function"
    },
    {
      "inputs": [],
      "name": "machineryCounter",
      "outputs": [
        {
          "internalType": "uint256",
          "name": "",
          "type": "uint256"
        }
      ],
      "stateMutability": "view",
      "type": "function"
    },
    {
      "inputs": [
        {
          "internalType": "uint256",
          "name": "_machineryId",
          "type": "uint256"
        },
        {
          "internalType": "bool",
          "name": "_rent",
          "type": "bool"
        }
      ],
      "name": "rentOrShareMachinery",
      "outputs": [],
      "stateMutability": "payable",
      "type": "function"
    }
  ],
  "bytecode": "0x608060405234801561001057600080fd5b5061103d806100206000396000f3fe60806040526004361061004a5760003560e01c80633213956f1461004f578063905025861461006b578063b46802e014610096578063c901b8c6146100bf578063ce61388a146100ea575b600080fd5b61006960048036038101906100649190610998565b61012b565b005b34801561007757600080fd5b5061008061042e565b60405161008d9190610cc3565b60405180910390f35b3480156100a257600080fd5b506100bd60048036038101906100b89190610908565b610434565b005b3480156100cb57600080fd5b506100d4610580565b6040516100e19190610c41565b60405180910390f35b3480156100f657600080fd5b50610111600480360381019061010c919061096f565b6106e5565b604051610122959493929190610d15565b60405180910390f35b6000805490508210610172576040517f08c379a000000000000000000000000000000000000000000000000000000000815260040161016990610c63565b60405180910390fd5b60008083815481106101ad577f4e487b7100000000000000000000000000000000000000000000000000000000600052603260045260246000fd5b90600052602060002090600502016040518060a0016040529081600082015481526020016001820180546101e090610ec0565b80601f016020809104026020016040519081016040528092919081815260200182805461020c90610ec0565b80156102595780601f1061022e57610100808354040283529160200191610259565b820191906000526020600020905b81548152906001019060200180831161023c57829003601f168201915b5050505050815260200160028201548152602001600382015481526020016004820160009054906101000a900473ffffffffffffffffffffffffffffffffffffffff1673ffffffffffffffffffffffffffffffffffffffff1673ffffffffffffffffffffffffffffffffffffffff16815250509050811561035b57806040015134101561031b576040517f08c379a000000000000000000000000000000000000000000000000000000000815260040161031290610c83565b60405180910390fd5b7f1972690fd4844e0630cf04f9f00bd080d405039ce1b7294c49828c3f735533da83333460405161034e93929190610cde565b60405180910390a16103de565b80606001513410156103a2576040517f08c379a000000000000000000000000000000000000000000000000000000000815260040161039990610ca3565b60405180910390fd5b7f9aefd6f6662407de0d4d323f73115be2bc37c97782496d5dfc85cdcf64bb70ad8333346040516103d593929190610cde565b60405180910390a15b806080015173ffffffffffffffffffffffffffffffffffffffff166108fc349081150290604051600060405180830381858888f19350505050158015610428573d6000803e3d6000fd5b50505050565b60015481565b60006040518060a0016040528060015481526020018581526020018481526020018381526020013373ffffffffffffffffffffffffffffffffffffffff1681525090806001815401808255809150506001900390600052602060002090600502016000909190919091506000820151816000015560208201518160010190805190602001906104c49291906107d3565b50604082015181600201556060820151816003015560808201518160040160006101000a81548173ffffffffffffffffffffffffffffffffffffffff021916908373ffffffffffffffffffffffffffffffffffffffff16021790555050507ffdcf31d5ca9ebad2d06cb114c8b29c73a4c03fef837e65a590b66e85c156f8de6001548484843360405161055b959493929190610d15565b60405180910390a16001600081548092919061057690610ef2565b9190505550505050565b60606000805480602002602001604051908101604052809291908181526020016000905b828210156106dc57838290600052602060002090600502016040518060a0016040529081600082015481526020016001820180546105e190610ec0565b80601f016020809104026020016040519081016040528092919081815260200182805461060d90610ec0565b801561065a5780601f1061062f5761010080835404028352916020019161065a565b820191906000526020600020905b81548152906001019060200180831161063d57829003601f168201915b5050505050815260200160028201548152602001600382015481526020016004820160009054906101000a900473ffffffffffffffffffffffffffffffffffffffff1673ffffffffffffffffffffffffffffffffffffffff1673ffffffffffffffffffffffffffffffffffffffff1681525050815260200190600101906105a4565b50505050905090565b600081815481106106f557600080fd5b906000526020600020906005020160009150905080600001549080600101805461071e90610ec0565b80601f016020809104026020016040519081016040528092919081815260200182805461074a90610ec0565b80156107975780601f1061076c57610100808354040283529160200191610797565b820191906000526020600020905b81548152906001019060200180831161077a57829003601f168201915b5050505050908060020154908060030154908060040160009054906101000a900473ffffffffffffffffffffffffffffffffffffffff16905085565b8280546107df90610ec0565b90600052602060002090601f0160209004810192826108015760008555610848565b82601f1061081a57805160ff1916838001178555610848565b82800160010185558215610848579182015b8281111561084757825182559160200191906001019061082c565b5b5090506108559190610859565b5090565b5b8082111561087257600081600090555060010161085a565b5090565b600061088961088484610da0565b610d6f565b9050828152602081018484840111156108a157600080fd5b6108ac848285610e7e565b509392505050565b6000813590506108c381610fd9565b92915050565b600082601f8301126108da57600080fd5b81356108ea848260208601610876565b91505092915050565b60008135905061090281610ff0565b92915050565b60008060006060848603121561091d57600080fd5b600084013567ffffffffffffffff81111561093757600080fd5b610943868287016108c9565b9350506020610954868287016108f3565b9250506040610965868287016108f3565b9150509250925092565b60006020828403121561098157600080fd5b600061098f848285016108f3565b91505092915050565b600080604083850312156109ab57600080fd5b60006109b9858286016108f3565b92505060206109ca858286016108b4565b9150509250929050565b60006109e08383610bad565b905092915050565b6109f181610e36565b82525050565b610a0081610e36565b82525050565b6000610a1182610de0565b610a1b8185610e03565b935083602082028501610a2d85610dd0565b8060005b85811015610a695784840389528151610a4a85826109d4565b9450610a5583610df6565b925060208a01995050600181019050610a31565b50829750879550505050505092915050565b6000610a8682610deb565b610a908185610e14565b9350610aa0818560208601610e8d565b610aa981610fc8565b840191505092915050565b6000610abf82610deb565b610ac98185610e25565b9350610ad9818560208601610e8d565b610ae281610fc8565b840191505092915050565b6000610afa601483610e25565b91507f496e76616c6964206d616368696e6572792049440000000000000000000000006000830152602082019050919050565b6000610b3a601d83610e25565b91507f496e73756666696369656e74207061796d656e7420666f722072656e740000006000830152602082019050919050565b6000610b7a601e83610e25565b91507f496e73756666696369656e74207061796d656e7420666f7220736861726500006000830152602082019050919050565b600060a083016000830151610bc56000860182610c23565b5060208301518482036020860152610bdd8282610a7b565b9150506040830151610bf26040860182610c23565b506060830151610c056060860182610c23565b506080830151610c1860808601826109e8565b508091505092915050565b610c2c81610e74565b82525050565b610c3b81610e74565b82525050565b60006020820190508181036000830152610c5b8184610a06565b905092915050565b60006020820190508181036000830152610c7c81610aed565b9050919050565b60006020820190508181036000830152610c9c81610b2d565b9050919050565b60006020820190508181036000830152610cbc81610b6d565b9050919050565b6000602082019050610cd86000830184610c32565b92915050565b6000606082019050610cf36000830186610c32565b610d0060208301856109f7565b610d0d6040830184610c32565b949350505050565b600060a082019050610d2a6000830188610c32565b8181036020830152610d3c8187610ab4565b9050610d4b6040830186610c32565b610d586060830185610c32565b610d6560808301846109f7565b9695505050505050565b6000604051905081810181811067ffffffffffffffff82111715610d9657610d95610f99565b5b8060405250919050565b600067ffffffffffffffff821115610dbb57610dba610f99565b5b601f19601f8301169050602081019050919050565b6000819050602082019050919050565b600081519050919050565b600081519050919050565b6000602082019050919050565b600082825260208201905092915050565b600082825260208201905092915050565b600082825260208201905092915050565b6000610e4182610e54565b9050919050565b60008115159050919050565b600073ffffffffffffffffffffffffffffffffffffffff82169050919050565b6000819050919050565b82818337600083830152505050565b60005b83811015610eab578082015181840152602081019050610e90565b83811115610eba576000848401525b50505050565b60006002820490506001821680610ed857607f821691505b60208210811415610eec57610eeb610f6a565b5b50919050565b6000610efd82610e74565b91507fffffffffffffffffffffffffffffffffffffffffffffffffffffffffffffffff821415610f3057610f2f610f3b565b5b600182019050919050565b7f4e487b7100000000000000000000000000000000000000000000000000000000600052601160045260246000fd5b7f4e487b7100000000000000000000000000000000000000000000000000000000600052602260045260246000fd5b7f4e487b7100000000000000000000000000000000000000000000000000000000600052604160045260246000fd5b6000601f19601f8301169050919050565b610fe281610e48565b8114610fed57600080fd5b50565b610ff981610e74565b811461100457600080fd5b5056fea26469706673582212206d8e67bf6a1604cdce01e8b57b895b94be778b3952f4f11f812730fccb3e526164736f6c63430008000033",
  "linkReferences": {},
  "deployedLinkReferences": {}
}