{
  "_format": "hh-sol-artifact-1",
  "contractName": "FarmMachinery",
  "sourceName": "contracts/FarmMachinery.sol",
  "abi": [
    {
      "anonymous": false,
      "inputs": [
        {
          "indexed": false,
          "internalType": "uint256",
          "name": "listingId",
          "type": "uint256"
        },
        {
          "indexed": false,
          "internalType": "address",
          "name": "farmer",
          "type": "address"
        },
        {
          "indexed": false,
          "internalType": "uint256",
          "name": "numDays",
          "type": "uint256"
        },
        {
          "indexed": false,
          "internalType": "uint256",
          "name": "amount",
          "type": "uint256"
        }
      ],
      "name": "Rented",
      "type": "event"
    },
    {
      "inputs": [
        {
          "internalType": "uint256",
          "name": "listingId",
          "type": "uint256"
        },
        {
          "internalType": "uint256",
          "name": "numDays",
          "type": "uint256"
        }
      ],
      "name": "rent",
      "outputs": [],
      "stateMutability": "payable",
      "type": "function"
    }
  ],
  "bytecode": "0x608060405234801561001057600080fd5b50610314806100206000396000f3fe60806040526004361061001e5760003560e01c8063783a112b14610023575b600080fd5b61003d6004803603810190610038919061011b565b61003f565b005b60008111610082576040517f08c379a000000000000000000000000000000000000000000000000000000000815260040161007990610215565b60405180910390fd5b600034116100c5576040517f08c379a00000000000000000000000000000000000000000000000000000000081526004016100bc906101f5565b60405180910390fd5b7fcea8ef445f087e63df6f242396764cabddc0c40f6ed03ede0a0ce1feb5404b71823383346040516100fa9493929190610235565b60405180910390a15050565b600081359050610115816102c7565b92915050565b6000806040838503121561012e57600080fd5b600061013c85828601610106565b925050602061014d85828601610106565b9150509250929050565b6101608161028b565b82525050565b600061017360108361027a565b91507f5061796d656e74207265717569726564000000000000000000000000000000006000830152602082019050919050565b60006101b3601b8361027a565b91507f44617973206d7573742062652067726561746572207468616e203000000000006000830152602082019050919050565b6101ef816102bd565b82525050565b6000602082019050818103600083015261020e81610166565b9050919050565b6000602082019050818103600083015261022e816101a6565b9050919050565b600060808201905061024a60008301876101e6565b6102576020830186610157565b61026460408301856101e6565b61027160608301846101e6565b95945050505050565b600082825260208201905092915050565b60006102968261029d565b9050919050565b600073ffffffffffffffffffffffffffffffffffffffff82169050919050565b6000819050919050565b6102d0816102bd565b81146102db57600080fd5b5056fea264697066735822122008f185f35a63c65cc4d73900602850d983da5052f66c4f714ccbdc5277dc9acc64736f6c63430008000033",
  "linkReferences": {},
  "deployedLinkReferences": {}
}