{"contracts/FarmMachinery.sol":{"FarmMachinery":{"abi":[{"anonymous":false,"inputs":[{"indexed":false,"internalType":"uint256","name":"listingId","type":"uint256"},{"indexed":false,"internalType":"address","name":"farmer","type":"address"},{"indexed":false,"internalType":"uint256","name":"numDays","type":"uint256"},{"indexed":false,"internalType":"uint256","name":"amount","type":"uint256"}],"name":"Rented","type":"event"},{"inputs":[{"internalType":"uint256","name":"listingId","type":"uint256"},{"internalType":"uint256","name":"numDays","type":"uint256"}],"name":"rent","outputs":[],"stateMutability":"payable","type":"function"}],"evm":{"bytecode":{"linkReferences":{},"object":"608060405234801561001057600080fd5b50610314806100206000396000f3fe60806040526004361061001e5760003560e01c8063783a112b14610023575b600080fd5b61003d6004803603810190610038919061011b565b61003f565b005b60008111610082576040517f08c379a000000000000000000000000000000000000000000000000000000000815260040161007990610215565b60405180910390fd5b600034116100c5576040517f08c379a00000000000000000000000000000000000000000000000000000000081526004016100bc906101f5565b60405180910390fd5b7fcea8ef445f087e63df6f242396764cabddc0c40f6ed03ede0a0ce1feb5404b71823383346040516100fa9493929190610235565b60405180910390a15050565b600081359050610115816102c7565b92915050565b6000806040838503121561012e57600080fd5b600061013c85828601610106565b925050602061014d85828601610106565b9150509250929050565b6101608161028b565b82525050565b600061017360108361027a565b91507f5061796d656e74207265717569726564000000000000000000000000000000006000830152602082019050919050565b60006101b3601b8361027a565b91507f44617973206d7573742062652067726561746572207468616e203000000000006000830152602082019050919050565b6101ef816102bd565b82525050565b6000602082019050818103600083015261020e81610166565b9050919050565b6000602082019050818103600083015261022e816101a6565b9050919050565b600060808201905061024a60008301876101e6565b6102576020830186610157565b61026460408301856101e6565b61027160608301846101e6565b95945050505050565b600082825260208201905092915050565b60006102968261029d565b9050919050565b600073ffffffffffffffffffffffffffffffffffffffff82169050919050565b6000819050919050565b6102d0816102bd565b81146102db57600080fd5b5056fea264697066735822122008f185f35a63c65cc4d73900602850d983da5052f66c4f714ccbdc5277dc9acc64736f6c63430008000033","opcodes":"PUSH1 0x80 PUSH1 0x40 MSTORE CALLVALUE DUP1 ISZERO PUSH2 0x10 JUMPI PUSH1 0x0 DUP1 REVERT JUMPDEST POP PUSH2 0x314 DUP1 PUSH2 0x20 PUSH1 0x0 CODECOPY PUSH1 0x0 RETURN INVALID PUSH1 0x80 PUSH1 0x40 MSTORE PUSH1 0x4 CALLDATASIZE LT PUSH2 0x1E JUMPI PUSH1 0x0 CALLDATALOAD PUSH1 0xE0 SHR DUP1 PUSH4 0x783A112B EQ PUSH2 0x23 JUMPI JUMPDEST PUSH1 0x0 DUP1 REVERT JUMPDEST PUSH2 0x3D PUSH1 0x4 DUP1 CALLDATASIZE SUB DUP2 ADD SWAP1 PUSH2 0x38 SWAP2 SWAP1 PUSH2 0x11B JUMP JUMPDEST PUSH2 0x3F JUMP JUMPDEST STOP JUMPDEST PUSH1 0x0 DUP2 GT PUSH2 0x82 JUMPI PUSH1 0x40 MLOAD PUSH32 0x8C379A000000000000000000000000000000000000000000000000000000000 DUP2 MSTORE PUSH1 0x4 ADD PUSH2 0x79 SWAP1 PUSH2 0x215 JUMP JUMPDEST PUSH1 0x40 MLOAD DUP1 SWAP2 SUB SWAP1 REVERT JUMPDEST PUSH1 0x0 CALLVALUE GT PUSH2 0xC5 JUMPI PUSH1 0x40 MLOAD PUSH32 0x8C379A000000000000000000000000000000000000000000000000000000000 DUP2 MSTORE PUSH1 0x4 ADD PUSH2 0xBC SWAP1 PUSH2 0x1F5 JUMP JUMPDEST PUSH1 0x40 MLOAD DUP1 SWAP2 SUB SWAP1 REVERT JUMPDEST PUSH32 0xCEA8EF445F087E63DF6F242396764CABDDC0C40F6ED03EDE0A0CE1FEB5404B71 DUP3 CALLER DUP4 CALLVALUE PUSH1 0x40 MLOAD PUSH2 0xFA SWAP5 SWAP4 SWAP3 SWAP2 SWAP1 PUSH2 0x235 JUMP JUMPDEST PUSH1 0x40 MLOAD DUP1 SWAP2 SUB SWAP1 LOG1 POP POP JUMP JUMPDEST PUSH1 0x0 DUP2 CALLDATALOAD SWAP1 POP PUSH2 0x115 DUP2 PUSH2 0x2C7 JUMP JUMPDEST SWAP3 SWAP2 POP POP JUMP JUMPDEST PUSH1 0x0 DUP1 PUSH1 0x40 DUP4 DUP6 SUB SLT ISZERO PUSH2 0x12E JUMPI PUSH1 0x0 DUP1 REVERT JUMPDEST PUSH1 0x0 PUSH2 0x13C DUP6 DUP3 DUP7 ADD PUSH2 0x106 JUMP JUMPDEST SWAP3 POP POP PUSH1 0x20 PUSH2 0x14D DUP6 DUP3 DUP7 ADD PUSH2 0x106 JUMP JUMPDEST SWAP2 POP POP SWAP3 POP SWAP3 SWAP1 POP JUMP JUMPDEST PUSH2 0x160 DUP2 PUSH2 0x28B JUMP JUMPDEST DUP3 MSTORE POP POP JUMP JUMPDEST PUSH1 0x0 PUSH2 0x173 PUSH1 0x10 DUP4 PUSH2 0x27A JUMP JUMPDEST SWAP2 POP PUSH32 0x5061796D656E7420726571756972656400000000000000000000000000000000 PUSH1 0x0 DUP4 ADD MSTORE PUSH1 0x20 DUP3 ADD SWAP1 POP SWAP2 SWAP1 POP JUMP JUMPDEST PUSH1 0x0 PUSH2 0x1B3 PUSH1 0x1B DUP4 PUSH2 0x27A JUMP JUMPDEST SWAP2 POP PUSH32 0x44617973206D7573742062652067726561746572207468616E20300000000000 PUSH1 0x0 DUP4 ADD MSTORE PUSH1 0x20 DUP3 ADD SWAP1 POP SWAP2 SWAP1 POP JUMP JUMPDEST PUSH2 0x1EF DUP2 PUSH2 0x2BD JUMP JUMPDEST DUP3 MSTORE POP POP JUMP JUMPDEST PUSH1 0x0 PUSH1 0x20 DUP3 ADD SWAP1 POP DUP2 DUP2 SUB PUSH1 0x0 DUP4 ADD MSTORE PUSH2 0x20E DUP2 PUSH2 0x166 JUMP JUMPDEST SWAP1 POP SWAP2 SWAP1 POP JUMP JUMPDEST PUSH1 0x0 PUSH1 0x20 DUP3 ADD SWAP1 POP DUP2 DUP2 SUB PUSH1 0x0 DUP4 ADD MSTORE PUSH2 0x22E DUP2 PUSH2 0x1A6 JUMP JUMPDEST SWAP1 POP SWAP2 SWAP1 POP JUMP JUMPDEST PUSH1 0x0 PUSH1 0x80 DUP3 ADD SWAP1 POP PUSH2 0x24A PUSH1 0x0 DUP4 ADD DUP8 PUSH2 0x1E6 JUMP JUMPDEST PUSH2 0x257 PUSH1 0x20 DUP4 ADD DUP7 PUSH2 0x157 JUMP JUMPDEST PUSH2 0x264 PUSH1 0x40 DUP4 ADD DUP6 PUSH2 0x1E6 JUMP JUMPDEST PUSH2 0x271 PUSH1 0x60 DUP4 ADD DUP5 PUSH2 0x1E6 JUMP JUMPDEST SWAP6 SWAP5 POP POP POP POP POP JUMP JUMPDEST PUSH1 0x0 DUP3 DUP3 MSTORE PUSH1 0x20 DUP3 ADD SWAP1 POP SWAP3 SWAP2 POP POP JUMP JUMPDEST PUSH1 0x0 PUSH2 0x296 DUP3 PUSH2 0x29D JUMP JUMPDEST SWAP1 POP SWAP2 SWAP1 POP JUMP JUMPDEST PUSH1 0x0 PUSH20 0xFFFFFFFFFFFFFFFFFFFFFFFFFFFFFFFFFFFFFFFF DUP3 AND SWAP1 POP SWAP2 SWAP1 POP JUMP JUMPDEST PUSH1 0x0 DUP2 SWAP1 POP SWAP2 SWAP1 POP JUMP JUMPDEST PUSH2 0x2D0 DUP2 PUSH2 0x2BD JUMP JUMPDEST DUP2 EQ PUSH2 0x2DB JUMPI PUSH1 0x0 DUP1 REVERT JUMPDEST POP JUMP INVALID LOG2 PUSH5 0x6970667358 0x22 SLT KECCAK256 ADDMOD CALL DUP6 RETURN GAS PUSH4 0xC65CC4D7 CODECOPY STOP PUSH1 0x28 POP 0xD9 DUP4 0xDA POP MSTORE 0xF6 PUSH13 0x4F714CCBDC5277DC9ACC64736F PUSH13 0x63430008000033000000000000 "},"methodIdentifiers":{"rent(uint256,uint256)":"783a112b"}}}}}