{
  "_format": "hh-sol-artifact-1",
  "contractName": "FarmMachinery",
  "sourceName": "contracts/FarmMachinery.sol",
  "abi": [
    {
      "inputs": [],
      "name": "getMachineries",
      "outputs": [
        {
          "components": [
            {
              "internalType": "uint256",
              "name": "id",
              "type": "uint256"
            },
            {
              "internalType": "string",
              "name": "name",
              "type": "string"
            },
            {
              "internalType": "uint256",
              "name": "rentPrice",
              "type": "uint256"
            },
            {
              "internalType": "uint256",
              "name": "sharePrice",
              "type": "uint256"
            },
            {
              "internalType": "address",
              "name": "owner",
              "type": "address"
            }
          ],
          "internalType": "struct FarmMachinery.Machinery[]",
          "name": "",
          "type": "tuple[]"
        }
      ],
      "stateMutability": "view",
      "type": "function"
    },
    {
      "inputs": [
        {
          "internalType": "string",
          "name": "_name",
          "type": "string"
        },
        {
          "internalType": "uint256",
          "name": "_rentPrice",
          "type": "uint256"
        },
        {
          "internalType": "uint256",
          "name": "_sharePrice",
          "type": "uint256"
        }
      ],
      "name": "listMachinery",
      "outputs": [],
      "stateMutability": "nonpayable",
      "type": "function"
    },
    {
      "inputs": [
        {
          "internalType": "uint256",
          "name": "",
          "type": "uint256"
        }
      ],
      "name": "machineries",
      "outputs": [
        {
          "internalType": "uint256",
          "name": "id",
          "type": "uint256"
        },
        {
          "internalType": "string",
          "name": "name",
          "type": "string"
        },
        {
          "internalType": "uint256",
          "name": "rentPrice",
          "type": "uint256"
        },
        {
          "internalType": "uint256",
          "name": "sharePrice",
          "type": "uint256"
        },
        {
          "internalType": "address",
          "name": "owner",
          "type": "address"
        }
      ],
      "stateMutability": "view",
      "type": "function"
    },
    {
      "inputs": [],
      "name": "machineryCounter",
      "outputs": [
        {
          "internalType": "uint256",
          "name": "",
          "type": "uint256"
        }
      ],
      "stateMutability": "view",
      "type": "function"
    },
    {
      "inputs": [
        {
          "internalType": "uint256",
          "name": "_machineryId",
          "type": "uint256"
        },
        {
          "internalType": "bool",
          "name": "_rent",
          "type": "bool"
        }
      ],
      "name": "rentOrShareMachinery",
      "outputs": [],
      "stateMutability": "payable",
      "type": "function"
    }
  ],
  "bytecode": "0x608060405234801561001057600080fd5b50610e5e806100206000396000f3fe60806040526004361061004a5760003560e01c80633213956f1461004f578063905025861461006b578063b46802e014610096578063c901b8c6146100bf578063ce61388a146100ea575b600080fd5b610069600480360381019061006491906107f0565b61012b565b005b34801561007757600080fd5b506100806102c7565b60405161008d9190610b1b565b60405180910390f35b3480156100a257600080fd5b506100bd60048036038101906100b89190610760565b6102cd565b005b3480156100cb57600080fd5b506100d46103d8565b6040516100e19190610a99565b60405180910390f35b3480156100f657600080fd5b50610111600480360381019061010c91906107c7565b61053d565b604051610122959493929190610b36565b60405180910390f35b6000805490508210610172576040517f08c379a000000000000000000000000000000000000000000000000000000000815260040161016990610abb565b60405180910390fd5b60008083815481106101ad577f4e487b7100000000000000000000000000000000000000000000000000000000600052603260045260246000fd5b90600052602060002090600502019050811561020f57806002015434101561020a576040517f08c379a000000000000000000000000000000000000000000000000000000000815260040161020190610adb565b60405180910390fd5b610257565b8060030154341015610256576040517f08c379a000000000000000000000000000000000000000000000000000000000815260040161024d90610afb565b60405180910390fd5b5b8060040160009054906101000a900473ffffffffffffffffffffffffffffffffffffffff1673ffffffffffffffffffffffffffffffffffffffff166108fc349081150290604051600060405180830381858888f193505050501580156102c1573d6000803e3d6000fd5b50505050565b60015481565b60006040518060a0016040528060015481526020018581526020018481526020018381526020013373ffffffffffffffffffffffffffffffffffffffff16815250908060018154018082558091505060019003906000526020600020906005020160009091909190915060008201518160000155602082015181600101908051906020019061035d92919061062b565b50604082015181600201556060820151816003015560808201518160040160006101000a81548173ffffffffffffffffffffffffffffffffffffffff021916908373ffffffffffffffffffffffffffffffffffffffff1602179055505050600160008154809291906103ce90610d13565b9190505550505050565b60606000805480602002602001604051908101604052809291908181526020016000905b8282101561053457838290600052602060002090600502016040518060a00160405290816000820154815260200160018201805461043990610ce1565b80601f016020809104026020016040519081016040528092919081815260200182805461046590610ce1565b80156104b25780601f10610487576101008083540402835291602001916104b2565b820191906000526020600020905b81548152906001019060200180831161049557829003601f168201915b5050505050815260200160028201548152602001600382015481526020016004820160009054906101000a900473ffffffffffffffffffffffffffffffffffffffff1673ffffffffffffffffffffffffffffffffffffffff1673ffffffffffffffffffffffffffffffffffffffff1681525050815260200190600101906103fc565b50505050905090565b6000818154811061054d57600080fd5b906000526020600020906005020160009150905080600001549080600101805461057690610ce1565b80601f01602080910402602001604051908101604052809291908181526020018280546105a290610ce1565b80156105ef5780601f106105c4576101008083540402835291602001916105ef565b820191906000526020600020905b8154815290600101906020018083116105d257829003601f168201915b5050505050908060020154908060030154908060040160009054906101000a900473ffffffffffffffffffffffffffffffffffffffff16905085565b82805461063790610ce1565b90600052602060002090601f01602090048101928261065957600085556106a0565b82601f1061067257805160ff19168380011785556106a0565b828001600101855582156106a0579182015b8281111561069f578251825591602001919060010190610684565b5b5090506106ad91906106b1565b5090565b5b808211156106ca5760008160009055506001016106b2565b5090565b60006106e16106dc84610bc1565b610b90565b9050828152602081018484840111156106f957600080fd5b610704848285610c9f565b509392505050565b60008135905061071b81610dfa565b92915050565b600082601f83011261073257600080fd5b81356107428482602086016106ce565b91505092915050565b60008135905061075a81610e11565b92915050565b60008060006060848603121561077557600080fd5b600084013567ffffffffffffffff81111561078f57600080fd5b61079b86828701610721565b93505060206107ac8682870161074b565b92505060406107bd8682870161074b565b9150509250925092565b6000602082840312156107d957600080fd5b60006107e78482850161074b565b91505092915050565b6000806040838503121561080357600080fd5b60006108118582860161074b565b92505060206108228582860161070c565b9150509250929050565b60006108388383610a05565b905092915050565b61084981610c57565b82525050565b61085881610c57565b82525050565b600061086982610c01565b6108738185610c24565b93508360208202850161088585610bf1565b8060005b858110156108c157848403895281516108a2858261082c565b94506108ad83610c17565b925060208a01995050600181019050610889565b50829750879550505050505092915050565b60006108de82610c0c565b6108e88185610c35565b93506108f8818560208601610cae565b61090181610de9565b840191505092915050565b600061091782610c0c565b6109218185610c46565b9350610931818560208601610cae565b61093a81610de9565b840191505092915050565b6000610952601483610c46565b91507f496e76616c6964206d616368696e6572792049440000000000000000000000006000830152602082019050919050565b6000610992601b83610c46565b91507f496e73756666696369656e742066756e647320666f722072656e7400000000006000830152602082019050919050565b60006109d2601c83610c46565b91507f496e73756666696369656e742066756e647320666f72207368617265000000006000830152602082019050919050565b600060a083016000830151610a1d6000860182610a7b565b5060208301518482036020860152610a3582826108d3565b9150506040830151610a4a6040860182610a7b565b506060830151610a5d6060860182610a7b565b506080830151610a706080860182610840565b508091505092915050565b610a8481610c95565b82525050565b610a9381610c95565b82525050565b60006020820190508181036000830152610ab3818461085e565b905092915050565b60006020820190508181036000830152610ad481610945565b9050919050565b60006020820190508181036000830152610af481610985565b9050919050565b60006020820190508181036000830152610b14816109c5565b9050919050565b6000602082019050610b306000830184610a8a565b92915050565b600060a082019050610b4b6000830188610a8a565b8181036020830152610b5d818761090c565b9050610b6c6040830186610a8a565b610b796060830185610a8a565b610b86608083018461084f565b9695505050505050565b6000604051905081810181811067ffffffffffffffff82111715610bb757610bb6610dba565b5b8060405250919050565b600067ffffffffffffffff821115610bdc57610bdb610dba565b5b601f19601f8301169050602081019050919050565b6000819050602082019050919050565b600081519050919050565b600081519050919050565b6000602082019050919050565b600082825260208201905092915050565b600082825260208201905092915050565b600082825260208201905092915050565b6000610c6282610c75565b9050919050565b60008115159050919050565b600073ffffffffffffffffffffffffffffffffffffffff82169050919050565b6000819050919050565b82818337600083830152505050565b60005b83811015610ccc578082015181840152602081019050610cb1565b83811115610cdb576000848401525b50505050565b60006002820490506001821680610cf957607f821691505b60208210811415610d0d57610d0c610d8b565b5b50919050565b6000610d1e82610c95565b91507fffffffffffffffffffffffffffffffffffffffffffffffffffffffffffffffff821415610d5157610d50610d5c565b5b600182019050919050565b7f4e487b7100000000000000000000000000000000000000000000000000000000600052601160045260246000fd5b7f4e487b7100000000000000000000000000000000000000000000000000000000600052602260045260246000fd5b7f4e487b7100000000000000000000000000000000000000000000000000000000600052604160045260246000fd5b6000601f19601f8301169050919050565b610e0381610c69565b8114610e0e57600080fd5b50565b610e1a81610c95565b8114610e2557600080fd5b5056fea2646970667358221220197ebc96fa6baa3ff1ea069e41588fee256b83b68cfd0bad4abb84928537fce964736f6c63430008000033",
  "linkReferences": {},
  "deployedLinkReferences": {}
}